{
  "address": "0xC4Bee702E033ac26fa9488F48F9Be0056BFE3D9D",
  "abi": [
    {
      "inputs": [],
      "stateMutability": "nonpayable",
      "type": "constructor"
    },
    {
      "anonymous": false,
      "inputs": [
        {
          "indexed": false,
          "internalType": "uint256",
          "name": "",
          "type": "uint256"
        }
      ],
      "name": "Approved",
      "type": "event"
    },
    {
      "anonymous": false,
      "inputs": [
        {
          "indexed": false,
          "internalType": "uint8",
          "name": "version",
          "type": "uint8"
        }
      ],
      "name": "Initialized",
      "type": "event"
    },
    {
      "inputs": [],
      "name": "approve",
      "outputs": [],
      "stateMutability": "nonpayable",
      "type": "function"
    },
    {
      "inputs": [],
      "name": "arbiter",
      "outputs": [
        {
          "internalType": "address",
          "name": "",
          "type": "address"
        }
      ],
      "stateMutability": "view",
      "type": "function"
    },
    {
      "inputs": [],
      "name": "beneficiary",
      "outputs": [
        {
          "internalType": "address",
          "name": "",
          "type": "address"
        }
      ],
      "stateMutability": "view",
      "type": "function"
    },
    {
      "inputs": [],
      "name": "depositor",
      "outputs": [
        {
          "internalType": "address",
          "name": "",
          "type": "address"
        }
      ],
      "stateMutability": "view",
      "type": "function"
    },
    {
      "inputs": [
        {
          "internalType": "address",
          "name": "_arbiter",
          "type": "address"
        },
        {
          "internalType": "address",
          "name": "_beneficiary",
          "type": "address"
        },
        {
          "internalType": "address",
          "name": "_depositor",
          "type": "address"
        }
      ],
      "name": "initialize",
      "outputs": [],
      "stateMutability": "payable",
      "type": "function"
    },
    {
      "inputs": [],
      "name": "isApproved",
      "outputs": [
        {
          "internalType": "bool",
          "name": "",
          "type": "bool"
        }
      ],
      "stateMutability": "view",
      "type": "function"
    }
  ],
  "transactionHash": "0x21f90a675d59587ce69d96f6857d1b470caae10bc738f1d5b6035e75f5cb627b",
  "args": [],
  "numDeployments": 1,
  "solcInputHash": "2edb9b4d7c0723c251e796200486e711",
  "bytecode": "0x608060405234801561001057600080fd5b5061001f61002460201b60201c565b6101bf565b600060019054906101000a900460ff1615610074576040517f08c379a000000000000000000000000000000000000000000000000000000000815260040161006b90610168565b60405180910390fd5b60ff801660008054906101000a900460ff1660ff1610156100e35760ff6000806101000a81548160ff021916908360ff1602179055507f7f26b83ff96e1f2b6a682f133852f6798a09c465da95921460cefb384740249860ff6040516100da91906101a4565b60405180910390a15b565b600082825260208201905092915050565b7f496e697469616c697a61626c653a20636f6e747261637420697320696e69746960008201527f616c697a696e6700000000000000000000000000000000000000000000000000602082015250565b60006101526027836100e5565b915061015d826100f6565b604082019050919050565b6000602082019050818103600083015261018181610145565b9050919050565b600060ff82169050919050565b61019e81610188565b82525050565b60006020820190506101b96000830184610195565b92915050565b6108a2806101ce6000396000f3fe6080604052600436106100555760003560e01c806312424e3f1461005a57806328f371aa1461007157806338af3eed1461009c578063c0c53b8b146100c7578063c7c4ff46146100e3578063fe25e00a1461010e575b600080fd5b34801561006657600080fd5b5061006f610139565b005b34801561007d57600080fd5b506100866102bc565b604051610093919061057b565b60405180910390f35b3480156100a857600080fd5b506100b16102cf565b6040516100be91906105d7565b60405180910390f35b6100e160048036038101906100dc9190610623565b6102f5565b005b3480156100ef57600080fd5b506100f86104f1565b60405161010591906105d7565b60405180910390f35b34801561011a57600080fd5b50610123610517565b60405161013091906105d7565b60405180910390f35b600060029054906101000a900473ffffffffffffffffffffffffffffffffffffffff1673ffffffffffffffffffffffffffffffffffffffff163373ffffffffffffffffffffffffffffffffffffffff161461019357600080fd5b60004790506000600160009054906101000a900473ffffffffffffffffffffffffffffffffffffffff1673ffffffffffffffffffffffffffffffffffffffff16826040516101e0906106a7565b60006040518083038185875af1925050503d806000811461021d576040519150601f19603f3d011682016040523d82523d6000602084013e610222565b606091505b5050905080610266576040517f08c379a000000000000000000000000000000000000000000000000000000000815260040161025d90610719565b60405180910390fd5b7f3ad93af63cb7967b23e4fb500b7d7d28b07516325dcf341f88bebf959d82c1cb826040516102959190610752565b60405180910390a16001600260146101000a81548160ff0219169083151502179055505050565b600260149054906101000a900460ff1681565b600160009054906101000a900473ffffffffffffffffffffffffffffffffffffffff1681565b60008060019054906101000a900460ff161590508080156103265750600160008054906101000a900460ff1660ff16105b8061035357506103353061053d565b1580156103525750600160008054906101000a900460ff1660ff16145b5b610392576040517f08c379a0000000000000000000000000000000000000000000000000000000008152600401610389906107df565b60405180910390fd5b60016000806101000a81548160ff021916908360ff16021790555080156103cf576001600060016101000a81548160ff0219169083151502179055505b83600060026101000a81548173ffffffffffffffffffffffffffffffffffffffff021916908373ffffffffffffffffffffffffffffffffffffffff16021790555082600160006101000a81548173ffffffffffffffffffffffffffffffffffffffff021916908373ffffffffffffffffffffffffffffffffffffffff16021790555081600260006101000a81548173ffffffffffffffffffffffffffffffffffffffff021916908373ffffffffffffffffffffffffffffffffffffffff16021790555080156104eb5760008060016101000a81548160ff0219169083151502179055507f7f26b83ff96e1f2b6a682f133852f6798a09c465da95921460cefb384740249860016040516104e29190610851565b60405180910390a15b50505050565b600260009054906101000a900473ffffffffffffffffffffffffffffffffffffffff1681565b600060029054906101000a900473ffffffffffffffffffffffffffffffffffffffff1681565b6000808273ffffffffffffffffffffffffffffffffffffffff163b119050919050565b60008115159050919050565b61057581610560565b82525050565b6000602082019050610590600083018461056c565b92915050565b600073ffffffffffffffffffffffffffffffffffffffff82169050919050565b60006105c182610596565b9050919050565b6105d1816105b6565b82525050565b60006020820190506105ec60008301846105c8565b92915050565b600080fd5b610600816105b6565b811461060b57600080fd5b50565b60008135905061061d816105f7565b92915050565b60008060006060848603121561063c5761063b6105f2565b5b600061064a8682870161060e565b935050602061065b8682870161060e565b925050604061066c8682870161060e565b9150509250925092565b600081905092915050565b50565b6000610691600083610676565b915061069c82610681565b600082019050919050565b60006106b282610684565b9150819050919050565b600082825260208201905092915050565b7f4661696c656420746f2073656e64204574686572000000000000000000000000600082015250565b60006107036014836106bc565b915061070e826106cd565b602082019050919050565b60006020820190508181036000830152610732816106f6565b9050919050565b6000819050919050565b61074c81610739565b82525050565b60006020820190506107676000830184610743565b92915050565b7f496e697469616c697a61626c653a20636f6e747261637420697320616c72656160008201527f647920696e697469616c697a6564000000000000000000000000000000000000602082015250565b60006107c9602e836106bc565b91506107d48261076d565b604082019050919050565b600060208201905081810360008301526107f8816107bc565b9050919050565b6000819050919050565b600060ff82169050919050565b6000819050919050565b600061083b610836610831846107ff565b610816565b610809565b9050919050565b61084b81610820565b82525050565b60006020820190506108666000830184610842565b9291505056fea264697066735822122053b2b942e5ed9d7f880fff9491c2953f04a2b26ee166b78d908734a10ae11e7264736f6c63430008110033",
  "devdoc": {
    "kind": "dev",
    "methods": {
      "constructor": {
        "custom:oz-upgrades-unsafe-allow": "constructor"
      }
    },
    "version": 1
  },
  "userdoc": {
    "kind": "user",
    "methods": {},
    "version": 1
  },
  "storageLayout": {
    "storage": [
      {
        "astId": 86,
        "contract": "contracts/Escrow.sol:Escrow",
        "label": "_initialized",
        "offset": 0,
        "slot": "0",
        "type": "t_uint8"
      },
      {
        "astId": 89,
        "contract": "contracts/Escrow.sol:Escrow",
        "label": "_initializing",
        "offset": 1,
        "slot": "0",
        "type": "t_bool"
      },
      {
        "astId": 585,
        "contract": "contracts/Escrow.sol:Escrow",
        "label": "arbiter",
        "offset": 2,
        "slot": "0",
        "type": "t_address"
      },
      {
        "astId": 587,
        "contract": "contracts/Escrow.sol:Escrow",
        "label": "beneficiary",
        "offset": 0,
        "slot": "1",
        "type": "t_address"
      },
      {
        "astId": 589,
        "contract": "contracts/Escrow.sol:Escrow",
        "label": "depositor",
        "offset": 0,
        "slot": "2",
        "type": "t_address"
      },
      {
        "astId": 591,
        "contract": "contracts/Escrow.sol:Escrow",
        "label": "isApproved",
        "offset": 20,
        "slot": "2",
        "type": "t_bool"
      }
    ],
    "types": {
      "t_address": {
        "encoding": "inplace",
        "label": "address",
        "numberOfBytes": "20"
      },
      "t_bool": {
        "encoding": "inplace",
        "label": "bool",
        "numberOfBytes": "1"
      },
      "t_uint8": {
        "encoding": "inplace",
        "label": "uint8",
        "numberOfBytes": "1"
      }
    }
  }
}