{
  "address": "0xeB659ebA057b15570825C9F8771cC79191DD2Ddc",
  "abi": [
    {
      "inputs": [
        {
          "internalType": "address",
          "name": "_implementationContract",
          "type": "address"
        }
      ],
      "stateMutability": "nonpayable",
      "type": "constructor"
    },
    {
      "anonymous": false,
      "inputs": [
        {
          "indexed": false,
          "internalType": "address",
          "name": "contractAddress",
          "type": "address"
        }
      ],
      "name": "EscrowContractCreated",
      "type": "event"
    },
    {
      "inputs": [
        {
          "internalType": "address",
          "name": "_arbiter",
          "type": "address"
        },
        {
          "internalType": "address",
          "name": "_beneficiary",
          "type": "address"
        }
      ],
      "name": "createEscrowContract",
      "outputs": [],
      "stateMutability": "payable",
      "type": "function"
    },
    {
      "inputs": [
        {
          "internalType": "uint256",
          "name": "",
          "type": "uint256"
        }
      ],
      "name": "deployedEscrowContracts",
      "outputs": [
        {
          "internalType": "address",
          "name": "",
          "type": "address"
        }
      ],
      "stateMutability": "view",
      "type": "function"
    },
    {
      "inputs": [],
      "name": "getDeployedContracts",
      "outputs": [
        {
          "internalType": "address[]",
          "name": "",
          "type": "address[]"
        }
      ],
      "stateMutability": "view",
      "type": "function"
    },
    {
      "inputs": [],
      "name": "implementationContract",
      "outputs": [
        {
          "internalType": "address",
          "name": "",
          "type": "address"
        }
      ],
      "stateMutability": "view",
      "type": "function"
    }
  ],
  "transactionHash": "0xddd73b86b42e20f29197c848ae5059976951de3331d920d0783dbad185a95c06",
  "args": [
    "0xC4Bee702E033ac26fa9488F48F9Be0056BFE3D9D"
  ],
  "numDeployments": 1,
  "solcInputHash": "2edb9b4d7c0723c251e796200486e711",
  "bytecode": "0x608060405234801561001057600080fd5b506040516107eb3803806107eb833981810160405281019061003291906100db565b806000806101000a81548173ffffffffffffffffffffffffffffffffffffffff021916908373ffffffffffffffffffffffffffffffffffffffff16021790555050610108565b600080fd5b600073ffffffffffffffffffffffffffffffffffffffff82169050919050565b60006100a88261007d565b9050919050565b6100b88161009d565b81146100c357600080fd5b50565b6000815190506100d5816100af565b92915050565b6000602082840312156100f1576100f0610078565b5b60006100ff848285016100c6565b91505092915050565b6106d4806101176000396000f3fe60806040526004361061003f5760003560e01c806319e75ccb146100445780634468304f1461006057806399e7d0561461009d578063aa9a068f146100c8575b600080fd5b61005e6004803603810190610059919061043d565b6100f3565b005b34801561006c57600080fd5b50610087600480360381019061008291906104b3565b61022f565b60405161009491906104ef565b60405180910390f35b3480156100a957600080fd5b506100b261026e565b6040516100bf91906104ef565b60405180910390f35b3480156100d457600080fd5b506100dd610292565b6040516100ea91906105c8565b60405180910390f35b600061011e60008054906101000a900473ffffffffffffffffffffffffffffffffffffffff16610320565b90508073ffffffffffffffffffffffffffffffffffffffff1663c0c53b8b348585336040518563ffffffff1660e01b815260040161015e939291906105ea565b6000604051808303818588803b15801561017757600080fd5b505af115801561018b573d6000803e3d6000fd5b50505050506001819080600181540180825580915050600190039060005260206000200160009091909190916101000a81548173ffffffffffffffffffffffffffffffffffffffff021916908373ffffffffffffffffffffffffffffffffffffffff1602179055507f3d5fbfa873291e4b3c077983f4947b5babdbcdc35e1030b01c19d77c6475d6148160405161022291906104ef565b60405180910390a1505050565b6001818154811061023f57600080fd5b906000526020600020016000915054906101000a900473ffffffffffffffffffffffffffffffffffffffff1681565b60008054906101000a900473ffffffffffffffffffffffffffffffffffffffff1681565b6060600180548060200260200160405190810160405280929190818152602001828054801561031657602002820191906000526020600020905b8160009054906101000a900473ffffffffffffffffffffffffffffffffffffffff1673ffffffffffffffffffffffffffffffffffffffff16815260200190600101908083116102cc575b5050505050905090565b6000763d602d80600a3d3981f3363d3d373d3d3d363d730000008260601b60e81c176000526e5af43d82803e903d91602b57fd5bf38260781b17602052603760096000f09050600073ffffffffffffffffffffffffffffffffffffffff168173ffffffffffffffffffffffffffffffffffffffff16036103d5576040517f08c379a00000000000000000000000000000000000000000000000000000000081526004016103cc9061067e565b60405180910390fd5b919050565b600080fd5b600073ffffffffffffffffffffffffffffffffffffffff82169050919050565b600061040a826103df565b9050919050565b61041a816103ff565b811461042557600080fd5b50565b60008135905061043781610411565b92915050565b60008060408385031215610454576104536103da565b5b600061046285828601610428565b925050602061047385828601610428565b9150509250929050565b6000819050919050565b6104908161047d565b811461049b57600080fd5b50565b6000813590506104ad81610487565b92915050565b6000602082840312156104c9576104c86103da565b5b60006104d78482850161049e565b91505092915050565b6104e9816103ff565b82525050565b600060208201905061050460008301846104e0565b92915050565b600081519050919050565b600082825260208201905092915050565b6000819050602082019050919050565b61053f816103ff565b82525050565b60006105518383610536565b60208301905092915050565b6000602082019050919050565b60006105758261050a565b61057f8185610515565b935061058a83610526565b8060005b838110156105bb5781516105a28882610545565b97506105ad8361055d565b92505060018101905061058e565b5085935050505092915050565b600060208201905081810360008301526105e2818461056a565b905092915050565b60006060820190506105ff60008301866104e0565b61060c60208301856104e0565b61061960408301846104e0565b949350505050565b600082825260208201905092915050565b7f455243313136373a20637265617465206661696c656400000000000000000000600082015250565b6000610668601683610621565b915061067382610632565b602082019050919050565b600060208201905081810360008301526106978161065b565b905091905056fea264697066735822122000186e16d67c0216ec487489be1a36f8a52d6ed0fda99a18766ed5c9f2e509ed64736f6c63430008110033",
  "devdoc": {
    "kind": "dev",
    "methods": {},
    "version": 1
  },
  "userdoc": {
    "kind": "user",
    "methods": {},
    "version": 1
  },
  "storageLayout": {
    "storage": [
      {
        "astId": 678,
        "contract": "contracts/Manager.sol:Manager",
        "label": "implementationContract",
        "offset": 0,
        "slot": "0",
        "type": "t_address"
      },
      {
        "astId": 681,
        "contract": "contracts/Manager.sol:Manager",
        "label": "deployedEscrowContracts",
        "offset": 0,
        "slot": "1",
        "type": "t_array(t_address)dyn_storage"
      }
    ],
    "types": {
      "t_address": {
        "encoding": "inplace",
        "label": "address",
        "numberOfBytes": "20"
      },
      "t_array(t_address)dyn_storage": {
        "base": "t_address",
        "encoding": "dynamic_array",
        "label": "address[]",
        "numberOfBytes": "32"
      }
    }
  }
}